:1000000063C0BEC17CC07BC07AC079C078C077C0F5
:1000100076C075C074C073C072C071C070C06FC04C
:100020006EC06DC06CC00403090412036F0062004F
:100030006400650076002E00610074001003480023
:10004000490044004B006500790073001201010172
:1000500000000008424231E10001010200010902F2
:1000600022000101008032090400000103000000A9
:100070000921010100012223000705810308000A6C
:1000800005010906A101050719E029E71500250169
:100090007501950881029501750825651900296586
:1000A0008100C000000204020502060207020802E5
:1000B00009020A020B020C020D020E020F021002CC
:1000C000110212021302140011241FBECFE5D4E066
:1000D000DEBFCDBF10E0A0E6B0E0EEEDF7E002C07D
:1000E00005900D92A436B107D9F710E0A4E6B0E070
:1000F00001C01D92AD39B107E1F71CD36EC380CFAB
:100100001F93162F2091620024FF0BC020917300D3
:1001100038E8232720937300DC01812FE4E7F0E027
:1001200007C02AE520936200F7CF9D9191938150FB
:100130008823D9F784E790E0612F9ED21C5F10934B
:1001400062001F9108950F931F93CF93DF938091C7
:10015000830018160CF0B0C09091800020917F00B1
:100160002D3209F0A1C02AE5209361008B3009F0FF
:100170009BC0CCE0D0E0C91BD109C957DF4F8881B3
:10018000807609F081C0109271008981882359F42A
:100190001092720081E790E090938200809381003A
:1001A00090E882E079C0853021F48A8180938400D0
:1001B00071C0863009F04CC08B81813019F48CE419
:1001C00090E01DC0823049F48EE590E0909382006B
:1001D0008093810090EC82E25FC0833019F58A81C0
:1001E000882349F486E290E0909382008093810016
:1001F00090EC84E051C0813049F48AE290E0909321
:1002000082008093810090EC82E146C0823009F048
:100210003FC08CE390E0909382008093810090EC4B
:1002200080E13AC0813249F480E790E09093820007
:100230008093810090EC89E02FC0823249F580E8FC
:1002400090E0909382008093810090EC83E224C040
:10025000883019F486E890E00AC0893021F48A8158
:100260008093860017C08A3049F481E790E090932C
:1002700082008093810090E881E00EC08B3051F4C1
:1002800083EC8093730006C0CE012FD290E804C0A7
:1002900090EC01C090E880E02F81222339F42E8178
:1002A000281720F4822F02C090E880E09093640029
:1002B00080936000109283008091610084FF47C0AA
:1002C000809160008F3F09F442C0182F893008F0F8
:1002D00018E0811B809360002091640020FF02C021
:1002E00003EC01C00BE42F5F209364008091810038
:1002F0009091820026FF05C0212FFC01A9E6B0E005
:1003000009C0DC01212FE9E6F0E00AC034913D93F9
:10031000319621502223D1F705C03D9131932150D0
:100320002223D9F7810F911D909382008093810041
:1003300089E690E0612FA0D1812F8C5F183019F0F1
:100340009FEF9093600000936800809361008AE0C3
:1003500090B3957031F48150D9F7109284001092C7
:100360007E00DF91CF911F910F91089585B7836033
:1003700085BF8BB780648BBF83EC80937300089537
:10038000CF93CFB7CF93809BFECF809B09C0809B3C
:1003900007C0809B05C0809B03C0809B01C09EC09E
:1003A000DF93C0918000DD27C957DF4F809B02C0DB
:1003B000DF91EBCF2F930F931F9300B32FEF00FB31
:1003C00020F94F933F9310B34FEF012700FB21F922
:1003D0003BE031C04E7F012F10B3216028C0102FA9
:1003E0004D7F2260000000B329C04B7F2460012FA5
:1003F000000010B32BC010B3477F28602AC04F7E87
:1004000000B320612CC04F7D10B320622FC04F7B02
:1004100000B3206432C0422700B349934FEF00007D
:10042000102710FB20F910B31570A9F1297F91F264
:10043000012700FB21F900B3237F89F23150F0F14D
:10044000102710FB22F910B3277E79F2012700FB59
:1004500023F92F7C81F200B3102710FB24F92F79A8
:1004600071F200C010B3012700FB25F92F7359F278
:1004700000C000B3102710FB26F9223040F200C064
:1004800010B3012700FB27F9243028F64F772068A6
:1004900010B30000F9CF3B503195333010E41ABF50
:1004A000B8F0C31BD0400881033C41F10B3431F15B
:1004B0001981412F1F7720917E00121731F40936E0
:1004C00091F10D3279F0013E69F0222720938500E9
:1004D0003F914F911F910F912F91DF91CF91CFBFFE
:1004E000CF911895009385003F914F911F910F91E7
:1004F0002F91DF91CAB7C6FD46CFF0CF009185009E
:10050000002331F3109183001123A1F53430A2F1BF
:100510003093830000937F00109180003BE0311BFB
:100520003093800029C00091830001301CF50AE55A
:1005300047FD09C03091610034FD20C00093610087
:10054000C8E6D0E01FC03091620034FD17C00093B0
:100550006200C3E7D0E016C0052710E002BB1FC051
:10056000052722C0052727C005272CC0052710E036
:1005700002BB33C04AE503C042ED01C0432FC4E1D2
:10058000D0E032E011B31560909A02B311BB5F93D3
:1005900055E020E820FF052702BB279517951C3F53
:1005A000D8F620FF0527279502BB17951C3FC0F6FC
:1005B00020FF05272795179502BB1C3F98F620FFC3
:1005C0000527279517951C3F02BB70F600C049917F
:1005D00020FF052702BB279517951C3F38F620FF03
:1005E0000527279502BB17951C3F38F520FF0527E7
:1005F0002795179502BB1C3F10F520FF052727956F
:1006000017951C3F02BBE8F4242F3A9519F60A7F90
:100610005F9102BB00C010918400C651D04011F020
:1006200010937E0010E41ABF016011B31A7F402FAF
:100630004A7F02BB11BB42BB4BCF0527D3CF052757
:10064000D8CF0527DDCFA82FB92F8FEF9FEF41E03F
:1006500050EA615070F02D9138E0722F782796950E
:100660008795269570FF02C0842795273A95A9F7AC
:10067000F0CF809590950895E6DF8D939D93089532
:1006800026B391E080E0392F32238F5F3323F9F0D6
:10069000863011F0990FF7CF23B391E080E0392F26
:1006A000322311F4895F08958F5F863011F0990F1E
:1006B000F6CF20B398E080E0392F322311F4835F26
:1006C00008958F5F853011F0990FF6CF80E008957F
:1006D00090E0880F991F8D559F4FFC012591349113
:1006E00020936600309367000895FC0186E690E051
:1006F0009093820080938100808180768032B1F473
:100700008181813021F4BCDFE3DF82E00895823013
:1007100041F485E690E0909382008093810081E02F
:1007200008958A3029F483818093650080E00895DC
:1007300080E00895FF920F931F93DF93CF930F9262
:10074000CDB7DEB72FE088E190E00FB6F894A8951A
:1007500081BD0FBE21BD8FEF88BB17BA85BB14BA10
:100760008AEF82BB87E081BB80E002C09150F1F745
:10077000815011F090E0FACF82E081BB85E083BF29
:10078000F5DD789410E090E000E0FF24F39401C0E0
:1007900091E0A8959983D7DC73DF9981081711F050
:1007A000082F91E008B600FE08C0F8BE80916500F1
:1007B000882319F0153020F01550992351F301C00A
:1007C000182F8091620084FFE3CF802F81DF86E6BF
:0E07D00090E062E095DC90E0DCCFF894FFCF83
:0407DE00FF5A5A0064
:00000001FF
