:1000000051C0ACC16AC069C068C067C066C065C085
:1000100064C063C062C061C060C05FC05EC05DC0DC
:100020005CC05BC05AC00403090412036F00620085
:100030006400650076002E00610074001003480023
:10004000490044004B006500790073001201010172
:1000500000000008424231E10001010200010902F2
:1000600022000101008032090400000103000000A9
:100070000921010100012223000705810308000A6C
:1000800005010906A101050719E029E71500250169
:100090007501950881029501750825651900296586
:1000A0008100C00011241FBECFE5D4E0DEBFCDBF6C
:1000B00010E0A0E6B0E0EEEAF8E002C005900D9294
:1000C000A237B107D9F710E0A2E7B0E001C01D9256
:1000D000AF3AB107E1F75ED3E8C392CF1F93162F73
:1000E0002091620024FF0BC02091850038E823276F
:1000F00020938500DC01812FE6E8F0E007C02AE5C7
:1001000020936200F7CF9D91919381508823D9F776
:1001100086E890E0612F9ED21C5F109362001F91D1
:1001200008950F931F93CF93DF9380919500181636
:100130000CF0B0C090919200209191002D3209F006
:10014000A1C02AE5209361008B3009F09BC0CCE070
:10015000D0E0C91BD109C756DF4F8881807609F0EE
:1001600081C0109283008981882359F41092840001
:1001700083E890E0909394008093930090E882E06D
:1001800079C0853021F48A818093960071C08630D1
:1001900009F04CC08B81813019F48CE490E01DC0D3
:1001A000823049F48EE590E0909394008093930020
:1001B00090EC82E25FC0833019F58A81882349F48C
:1001C00086E290E0909394008093930090EC84E01A
:1001D00051C0813049F48AE290E09093940080937A
:1001E000930090EC82E146C0823009F03FC08CE37E
:1001F00090E0909394008093930090EC80E13AC05B
:10020000813249F480E790E09093940080939300CA
:1002100090EC89E02FC0823249F580E890E090931D
:1002200094008093930090EC83E224C0883019F40A
:1002300088E990E00AC0893021F48A81809398008F
:1002400017C08A3049F483E890E09093940080933B
:10025000930090E881E00EC08B3051F483EC8093E2
:10026000850006C0CE016ED290E804C090EC01C0BB
:1002700090E880E02F81222339F42E81281720F482
:10028000822F02C090E880E090937200809360001B
:10029000109295008091610084FF47C080916000BA
:1002A0008F3F09F442C0182F893008F018E0811BF5
:1002B000809360002091720020FF02C003EC01C017
:1002C0000BE42F5F20937200809193009091940033
:1002D00026FF05C0212FFC01ABE7B0E009C0DC011F
:1002E000212FEBE7F0E00AC034913D933196215085
:1002F0002223D1F705C03D91319321502223D9F714
:10030000810F911D90939400809393008BE790E070
:10031000612FA0D1812F8C5F183019F09FEF90933F
:10032000600000937A00809361008AE090B395703A
:1003300031F48150D9F71092960010929000DF911D
:10034000CF911F910F91089585B7836085BF8BB7BB
:1003500080648BBF83EC809385000895CF93CFB7E3
:10036000CF93809BFECF809B09C0809B07C0809B62
:1003700005C0809B03C0809B01C09EC0DF93C091DD
:100380009200DD27C756DF4F809B02C0DF91EBCF85
:100390002F930F931F9300B32FEF00FB20F94F9380
:1003A0003F9310B34FEF012700FB21F93BE031C031
:1003B0004E7F012F10B3216028C0102F4D7F226087
:1003C000000000B329C04B7F2460012F000010B350
:1003D0002BC010B3477F28602AC04F7E00B3206136
:1003E0002CC04F7D10B320622FC04F7B00B3206420
:1003F00032C0422700B349934FEF0000102710FB93
:1004000020F910B31570A9F1297F91F2012700FBA3
:1004100021F900B3237F89F23150F0F1102710FB4E
:1004200022F910B3277E79F2012700FB23F92F7CF4
:1004300081F200B3102710FB24F92F7971F200C06C
:1004400010B3012700FB25F92F7359F200C000B348
:10045000102710FB26F9223040F200C010B301270C
:1004600000FB27F9243028F64F77206810B30000EE
:10047000F9CF3B503195333010E41ABFB8F0C31BAD
:10048000D0400881033C41F10B3431F11981412FF7
:100490001F7720919000121731F4093691F10D3237
:1004A00079F0013E69F02227209397003F914F9108
:1004B0001F910F912F91DF91CF91CFBFCF911895C1
:1004C000009397003F914F911F910F912F91DF91D2
:1004D000CAB7C6FD46CFF0CF00919700002331F395
:1004E000109195001123A1F53430A2F130939500BD
:1004F00000939100109192003BE0311B30939200E9
:1005000029C00091950001301CF50AE547FD09C09E
:100510003091610034FD20C000936100CAE7D0E053
:100520001FC03091620034FD17C000936200C5E81F
:10053000D0E016C0052710E002BB1FC0052722C06F
:10054000052727C005272CC0052710E002BB33C0B4
:100550004AE503C042ED01C0432FC4E1D0E032E0E0
:1005600011B31560909A02B311BB5F9355E020E878
:1005700020FF052702BB279517951C3FD8F620FFC3
:100580000527279502BB17951C3FC0F620FF0527BE
:100590002795179502BB1C3F98F620FF0527279546
:1005A00017951C3F02BB70F600C0499120FF05273C
:1005B00002BB279517951C3F38F620FF0527279586
:1005C00002BB17951C3F38F520FF05272795179587
:1005D00002BB1C3F10F520FF0527279517951C3FF0
:1005E00002BBE8F4242F3A9519F60A7F5F9102BB0B
:1005F00000C010919600C651D04011F010939000A9
:1006000010E41ABF016011B31A7F402F4A7F02BB6A
:1006100011BB42BB4BCF0527D3CF0527D8CF05272A
:10062000DDCFA82FB92F8FEF9FEF41E050EA615047
:1006300070F02D9138E0722F782796958795269542
:1006400070FF02C0842795273A95A9F7F0CF8095CF
:1006500090950895E6DF8D939D930895982F90537C
:100660009A3020F410927800895064C0982F9156E7
:100670009A3120F4109278008D555CC0982F9154D7
:100680009A3128F492E0909378008D5353C08A33C6
:10069000E9F18B3390F48C32F1F18D3240F48032F9
:1006A000F1F08B3259F18A3009F047C014C08D3215
:1006B000D1F08E3209F041C036C08D33E1F08E3377
:1006C00028F48B3301F18C33C1F528C08E3371F1DE
:1006D0008F3599F50BC01092780088E22BC01092EC
:1006E00078008CE227C01092780024C082E08093CA
:1006F00078008DE21FC01092780003C082E08093E2
:1007000078008EE217C01092780003C082E08093D8
:10071000780083E30FC01092780003C082E08093DA
:10072000780086E307C01092780003C082E08093CF
:10073000780087E3809379000895109278001092F2
:1007400079000895FC0188E790E0909394008093ED
:100750009300808180768032C9F48181813039F4C0
:1007600082B3805882BB80E079DF82E008958230D6
:1007700041F487E790E0909394008093930081E0A8
:1007800008958A3029F483818093770080E008956A
:1007900080E00895BF92CF92DF92EF92FF920F9385
:1007A0001F93CF93DF932FE088E190E00FB6F8948A
:1007B000A89581BD0FBE21BD8FEF88BB17BA85BB41
:1007C00014BA8AE182BB87EE81BB80E002C09150FF
:1007D000F1F7815011F090E0FACF81B38A7F81BBAD
:1007E00085E083BFB1DD7894FF2400E027E0B22EDE
:1007F00090E2C92EDD24D394C3E6D0E080E4E82E55
:1008000001C001E0A8958DDC83B386958695869519
:100810008B259091740098279093730080937400B7
:1008200090FF0CC080FF0AC082B38C2582BB0023DE
:1008300021F4D0937600C093750001E008B600FE65
:100840000FC0D8BE90917700992351F08F2D85303D
:1008500018F0EBEFFE0E04C082B38E2582BBF92E9A
:10086000002381F28091620084FFCBCF009175005C
:10087000109176000115110569F0F8018081882337
:1008800049F0ECDE0F5F1F4F109376000093750068
:1008900001E001C000E088E790E062E01FDC002397
:0E08A00009F0AFCF80E0DADEADCFF894FFCFE5
:1008AE00FF5A5A48656C6C6F2C20776F726C6421FE
:0208BE000A002E
:00000001FF
